{
  "contractName": "ImageStorage",
  "abi": [
    {
      "anonymous": false,
      "inputs": [
        {
          "indexed": true,
          "internalType": "uint256",
          "name": "imageID",
          "type": "uint256"
        }
      ],
      "name": "ImageAdded",
      "type": "event"
    },
    {
      "anonymous": false,
      "inputs": [
        {
          "indexed": true,
          "internalType": "address",
          "name": "previousOwner",
          "type": "address"
        },
        {
          "indexed": true,
          "internalType": "address",
          "name": "newOwner",
          "type": "address"
        }
      ],
      "name": "OwnershipTransferred",
      "type": "event"
    },
    {
      "inputs": [],
      "name": "imageCount",
      "outputs": [
        {
          "internalType": "uint256",
          "name": "",
          "type": "uint256"
        }
      ],
      "stateMutability": "view",
      "type": "function"
    },
    {
      "inputs": [
        {
          "internalType": "uint256",
          "name": "",
          "type": "uint256"
        }
      ],
      "name": "images",
      "outputs": [
        {
          "internalType": "string",
          "name": "",
          "type": "string"
        }
      ],
      "stateMutability": "view",
      "type": "function"
    },
    {
      "inputs": [],
      "name": "owner",
      "outputs": [
        {
          "internalType": "address",
          "name": "",
          "type": "address"
        }
      ],
      "stateMutability": "view",
      "type": "function"
    },
    {
      "inputs": [],
      "name": "renounceOwnership",
      "outputs": [],
      "stateMutability": "nonpayable",
      "type": "function"
    },
    {
      "inputs": [
        {
          "internalType": "address",
          "name": "newOwner",
          "type": "address"
        }
      ],
      "name": "transferOwnership",
      "outputs": [],
      "stateMutability": "nonpayable",
      "type": "function"
    },
    {
      "inputs": [
        {
          "internalType": "string",
          "name": "_path",
          "type": "string"
        }
      ],
      "name": "set",
      "outputs": [],
      "stateMutability": "nonpayable",
      "type": "function"
    }
  ],
  "bytecode": "0x608060405234801561001057600080fd5b5061002d61002261003260201b60201c565b61003a60201b60201c565b6100fe565b600033905090565b60008060009054906101000a900473ffffffffffffffffffffffffffffffffffffffff169050816000806101000a81548173ffffffffffffffffffffffffffffffffffffffff021916908373ffffffffffffffffffffffffffffffffffffffff1602179055508173ffffffffffffffffffffffffffffffffffffffff168173ffffffffffffffffffffffffffffffffffffffff167f8be0079c531659141344cd1fd0a4f28419497f9722a3daafe3b4186f6b6457e060405160405180910390a35050565b610b5f8061010d6000396000f3fe608060405234801561001057600080fd5b50600436106100625760003560e01c80634ed3885e14610067578063715018a614610083578063848564821461008d5780638da5cb5b146100bd57806392053b63146100db578063f2fde38b146100f9575b600080fd5b610081600480360381019061007c919061071d565b610115565b005b61008b610205565b005b6100a760048036038101906100a2919061079c565b61028d565b6040516100b49190610851565b60405180910390f35b6100c561032d565b6040516100d291906108b4565b60405180910390f35b6100e3610356565b6040516100f091906108de565b60405180910390f35b610113600480360381019061010e9190610925565b61035c565b005b61011d610454565b73ffffffffffffffffffffffffffffffffffffffff1661013b61032d565b73ffffffffffffffffffffffffffffffffffffffff1614610191576040517f08c379a00000000000000000000000000000000000000000000000000000000081526004016101889061099e565b60405180910390fd5b600160008154809291906101a4906109ed565b91905055508060026000600154815260200190815260200160002090805190602001906101d2929190610520565b506001547f2d97d9a9c8a811cafc5d871f1fda0a5458873d1d4e9d5be5fdeff87520ce9bb060405160405180910390a250565b61020d610454565b73ffffffffffffffffffffffffffffffffffffffff1661022b61032d565b73ffffffffffffffffffffffffffffffffffffffff1614610281576040517f08c379a00000000000000000000000000000000000000000000000000000000081526004016102789061099e565b60405180910390fd5b61028b600061045c565b565b600260205280600052604060002060009150905080546102ac90610a65565b80601f01602080910402602001604051908101604052809291908181526020018280546102d890610a65565b80156103255780601f106102fa57610100808354040283529160200191610325565b820191906000526020600020905b81548152906001019060200180831161030857829003601f168201915b505050505081565b60008060009054906101000a900473ffffffffffffffffffffffffffffffffffffffff16905090565b60015481565b610364610454565b73ffffffffffffffffffffffffffffffffffffffff1661038261032d565b73ffffffffffffffffffffffffffffffffffffffff16146103d8576040517f08c379a00000000000000000000000000000000000000000000000000000000081526004016103cf9061099e565b60405180910390fd5b600073ffffffffffffffffffffffffffffffffffffffff168173ffffffffffffffffffffffffffffffffffffffff161415610448576040517f08c379a000000000000000000000000000000000000000000000000000000000815260040161043f90610b09565b60405180910390fd5b6104518161045c565b50565b600033905090565b60008060009054906101000a900473ffffffffffffffffffffffffffffffffffffffff169050816000806101000a81548173ffffffffffffffffffffffffffffffffffffffff021916908373ffffffffffffffffffffffffffffffffffffffff1602179055508173ffffffffffffffffffffffffffffffffffffffff168173ffffffffffffffffffffffffffffffffffffffff167f8be0079c531659141344cd1fd0a4f28419497f9722a3daafe3b4186f6b6457e060405160405180910390a35050565b82805461052c90610a65565b90600052602060002090601f01602090048101928261054e5760008555610595565b82601f1061056757805160ff1916838001178555610595565b82800160010185558215610595579182015b82811115610594578251825591602001919060010190610579565b5b5090506105a291906105a6565b5090565b5b808211156105bf5760008160009055506001016105a7565b5090565b6000604051905090565b600080fd5b600080fd5b600080fd5b600080fd5b6000601f19601f8301169050919050565b7f4e487b7100000000000000000000000000000000000000000000000000000000600052604160045260246000fd5b61062a826105e1565b810181811067ffffffffffffffff82111715610649576106486105f2565b5b80604052505050565b600061065c6105c3565b90506106688282610621565b919050565b600067ffffffffffffffff821115610688576106876105f2565b5b610691826105e1565b9050602081019050919050565b82818337600083830152505050565b60006106c06106bb8461066d565b610652565b9050828152602081018484840111156106dc576106db6105dc565b5b6106e784828561069e565b509392505050565b600082601f830112610704576107036105d7565b5b81356107148482602086016106ad565b91505092915050565b600060208284031215610733576107326105cd565b5b600082013567ffffffffffffffff811115610751576107506105d2565b5b61075d848285016106ef565b91505092915050565b6000819050919050565b61077981610766565b811461078457600080fd5b50565b60008135905061079681610770565b92915050565b6000602082840312156107b2576107b16105cd565b5b60006107c084828501610787565b91505092915050565b600081519050919050565b600082825260208201905092915050565b60005b838110156108035780820151818401526020810190506107e8565b83811115610812576000848401525b50505050565b6000610823826107c9565b61082d81856107d4565b935061083d8185602086016107e5565b610846816105e1565b840191505092915050565b6000602082019050818103600083015261086b8184610818565b905092915050565b600073ffffffffffffffffffffffffffffffffffffffff82169050919050565b600061089e82610873565b9050919050565b6108ae81610893565b82525050565b60006020820190506108c960008301846108a5565b92915050565b6108d881610766565b82525050565b60006020820190506108f360008301846108cf565b92915050565b61090281610893565b811461090d57600080fd5b50565b60008135905061091f816108f9565b92915050565b60006020828403121561093b5761093a6105cd565b5b600061094984828501610910565b91505092915050565b7f4f776e61626c653a2063616c6c6572206973206e6f7420746865206f776e6572600082015250565b60006109886020836107d4565b915061099382610952565b602082019050919050565b600060208201905081810360008301526109b78161097b565b9050919050565b7f4e487b7100000000000000000000000000000000000000000000000000000000600052601160045260246000fd5b60006109f882610766565b91507fffffffffffffffffffffffffffffffffffffffffffffffffffffffffffffffff821415610a2b57610a2a6109be565b5b600182019050919050565b7f4e487b7100000000000000000000000000000000000000000000000000000000600052602260045260246000fd5b60006002820490506001821680610a7d57607f821691505b60208210811415610a9157610a90610a36565b5b50919050565b7f4f776e61626c653a206e6577206f776e657220697320746865207a65726f206160008201527f6464726573730000000000000000000000000000000000000000000000000000602082015250565b6000610af36026836107d4565b9150610afe82610a97565b604082019050919050565b60006020820190508181036000830152610b2281610ae6565b905091905056fea26469706673582212209e483434349e5874374aeff8706ee555a3d771007ff8cc38d9d82e490471a4c264736f6c634300080a0033",
  "immutableReferences": {},
  "source": "// SPDX-License-Identifier: MIT\npragma solidity ^0.8.0;\n\nimport \"@openzeppelin/contracts/access/Ownable.sol\";\n\n/// @title Contract for Decentralized Image Storage\n/// @author Scott Guthrie\n/// @notice Allows a user to store an image wihtout any centralized entity \n/// @dev Image will be stored in ipfs and link to ipfs will be stored in smart contract\ncontract ImageStorage is Ownable{\n\n  /// @dev counts how many image has been added to the storage\n  uint public imageCount;\n\n  /// @notice Emitted when an image link is added to the blockchain\n  /// @param imageID Image count\n  event ImageAdded(uint indexed imageID);\n\n  \n  mapping(uint => string) public images;\n\n  /// @notice Adds image link to a given image count\n  /// @param _path link of the image stored in ipfs\n  function set(string memory _path) public onlyOwner{\n    imageCount++;\n    images[imageCount] = _path;\n    emit ImageAdded(imageCount);\n  }\n\n}\n\n\n",
  "sourcePath": "C:\\Users\\ojasm\\Documents\\Blockchain\\Scott\\image-storage\\contracts\\ImageStorage.sol",
  "compiler": {
    "name": "solc",
    "version": "0.8.10+commit.fc410830.Emscripten.clang"
  },
  "schemaVersion": "3.4.3",
  "updatedAt": "2021-11-26T14:08:15.998Z",
  "devdoc": {
    "author": "Scott Guthrie",
    "details": "Image will be stored in ipfs and link to ipfs will be stored in smart contract",
    "events": {
      "ImageAdded(uint256)": {
        "params": {
          "imageID": "Image count"
        }
      }
    },
    "kind": "dev",
    "methods": {
      "owner()": {
        "details": "Returns the address of the current owner."
      },
      "renounceOwnership()": {
        "details": "Leaves the contract without owner. It will not be possible to call `onlyOwner` functions anymore. Can only be called by the current owner. NOTE: Renouncing ownership will leave the contract without an owner, thereby removing any functionality that is only available to the owner."
      },
      "set(string)": {
        "params": {
          "_path": "link of the image stored in ipfs"
        }
      },
      "transferOwnership(address)": {
        "details": "Transfers ownership of the contract to a new account (`newOwner`). Can only be called by the current owner."
      }
    },
    "stateVariables": {
      "imageCount": {
        "details": "counts how many image has been added to the storage"
      }
    },
    "title": "Contract for Decentralized Image Storage",
    "version": 1
  },
  "userdoc": {
    "events": {
      "ImageAdded(uint256)": {
        "notice": "Emitted when an image link is added to the blockchain"
      }
    },
    "kind": "user",
    "methods": {
      "set(string)": {
        "notice": "Adds image link to a given image count"
      }
    },
    "notice": "Allows a user to store an image wihtout any centralized entity ",
    "version": 1
  }
}